:020000041000EA
:1000000000B5324B212058609868022188439860DF
:10001000D860186158612E4B002199600221596106
:100020000121F02299502B49196001219960352056
:1000300000F044F80222904214D00621196600F024
:1000400034F8196E01211966002018661A6600F04E
:100050002CF8196E196E196E052000F02FF8012189
:100060000842F9D1002199601B49196000215960AB
:100070001A491B48016001219960EB211966A021F2
:10008000196600F012F800219960164914480160C1
:100090000121996001BC002800D000471248134993
:1000A000086003C880F30888084703B5996A0420EC
:1000B0000142FBD001200142F8D103BD02B5186610
:1000C0001866FFF7F2FF186E186E02BD00000240BE
:1000D000000000180000070000035F00212200005C
:1000E000F4000018222000A00001001008ED00E03C
:1000F00000000000000000000000000074B24E7A12
:1001000000200420F7010010C3010010C5010010F9
:10011000C1010010C1010010C1010010C101001097
:10012000C1010010C1010010C1010010C701001081
:10013000C1010010C1010010C9010010CB01001065
:10014000CD010010CD010010CD010010CD01001037
:10015000CD010010CD010010CD010010CD01001027
:10016000CD010010CD010010CD010010CD01001017
:10017000CD010010CD010010CD010010CD01001007
:10018000CD010010CD010010CD010010CD010010F7
:10019000CD010010CD010010CD010010CD010010E7
:1001A000CD010010CD010010CD010010CD010010D7
:1001B000CD010010CD010010CD010010CD010010C7
:1001C00000BE00BE00BE00BE00BE00BE00F04BF888
:1001D000103800BEF2EB8871B8240010D42400104F
:1001E0003402001090A31AE700202149086006C8D5
:1001F00081F3088810471F48006800282FD10DA4FC
:100200000ECC002902D000F012F8F9E71A491B4A77
:10021000002000E001C19142FCD1194988471949E9
:1002200088471949884700BEFDE701C901C29A42C3
:10023000FBD37047D4240010C000002070030020BE
:1002400084270010000004200000042084270010F0
:1002500000100420001004200000000070470B482C
:1002600001F034FC0047EFF30580C0B27047000096
:1002700008ED00E0000000D07003002050080020CE
:100280008D1200102D0400107D1300105756000031
:1002900006005250ABB36053302400100600525099
:1002A000861C030240240010060052505422A29DD6
:1002B0004C24001005005250DE65F46884270010BD
:1002C000F8B5C0460448054B10B5834203D0044B33
:1002D000002B00D0984710BD700300207003002051
:1002E0000000000006480749091A8B10C90FC918F9
:1002F00010B5491003D0044B002B00D0984710BD17
:1003000070030020700300200000000010B5074CAF
:100310002378002B09D1FFF7D5FF054B002B02D026
:10032000044800E000BF0123237010BD70040020CA
:1003300000000000B8230010054B10B5002B03D0BF
:100340000449054800E000BFFFF7CCFF10BDC046E0
:100350000000000074040020B8230010F0B5C64669
:100360001C00002300B58AB0160005938022F823F4
:1003700052025B0202920393C02305001B030F008D
:10038000102202A906A89846049301F02BFD8023B1
:100390005B02069333000933F2011B0313430793F7
:1003A0004346102206A902A8089301F01BFD1D4B2D
:1003B0002000E9184B1E9941063100F063F8059AB8
:1003C000194B39001340620113438022D2041343B6
:1003D0000593012322002800009301F003FF1098E9
:1003E00001F0A4FC84B20020002C0ED0200001F00B
:1003F00075FC011C109801F050FC8721C90501F023
:1004000066FC01F093FCC0B20002240404433200F5
:100410003900280002AB029401F028FF0AB004BCA6
:100420009046F0BD0000E0AF1FFCFFE370B5124C3A
:1004300082B00121200001F045FE10490500200096
:1004400001F05EFE0600052001F016F901F046FC01
:100450000B4901F028FC19233200009029002000EC
:10046000FFF77CFF0123AB40226813432360FA208F
:10047000800000F07FFBFAE700002050B823001056
:100480000000FA44094A830094464022634410B5B0
:100490001C68C0006240C0241440802252011343F3
:1004A0001C60034B9C466044416010BD04C0014089
:1004B00000400140EFF3108072B6034A1368002B2E
:1004C000FCD0BFF35F8F70472C0100D0BFF35F8F6C
:1004D0000022024B1A6080F3108870472C0100D074
:1004E000F8B5EFF3108772B60E4E3368002BFCD0D0
:1004F000BFF35F8FCB08C4180725A446C45C012353
:100500000D40AB4018002040234208D162462343EF
:100510001370BFF35F8F306087F31088F8BD100051
:1005200000F02EFF2C0100D0F8B5CE4647468C4691
:1005300080B5EFF3108872B6214D2C68002CFCD0EA
:10054000BFF35F8F9A422CD8D4080721055D0619A6
:10055000012411408C402C421FD0072189460639C6
:1005600009E0D408055D06194C460F001440A74069
:100570003C002F4211D001329342F2D2012040427E
:10058000BFF35F8F00220E4B1A6088F3108800289B
:100590000FDB0CBC90469946F8BD2C43100034701C
:1005A000EEE7BFF35F8F00232B6088F310880120F4
:1005B00040426346002BECD0089800F0E1FEC046B4
:1005C0002C0100D0024B18688007C00F7047C0464E
:1005D00000C006400021044B044ABFF35F8F02C3F2
:1005E0009342FAD17047C046000100D0800100D08C
:1005F000044A1078431CDBB2172B00D91023137068
:100600007047C046B802002083680B4810B5844686
:1006100061446244090112019A18591854684B68E0
:1006200001209C4201D802D00020C0B210BD126847
:100630000B689A42F9D8F7E7FFFFFF0F0A4B1968DA
:10064000EFF3108072B60A68002AFCD0BFF35F8F08
:100650001B68BFF35F8F00221A6080F3108840BFD1
:10066000002000217047C04634060020F8B55746E8
:100670004E464546DE46E0B5434D81468A466A68A9
:10068000EFF3108872B61368002BFCD0BFF35F8FB6
:100690002E68B47B002C3ED0670033683F19033FBF
:1006A000DA195378B373002B00D1F37300239370DE
:1006B00053701370A968354A8C464946A218120136
:1006C00062441160514651603149D3609160326893
:1006D000D219937053701370737B9B46002B35D0E7
:1006E00022001900B068736898473268002820D04B
:1006F0005B4658465B005B44D719033BB870D11882
:10070000D35C002B00D07B705B460C7073735C4530
:100710001DD0002626E06B68BFF35F8F1C6088F356
:100720001088012040423CBC90469946A246AB4608
:10073000F8BD5B465B005B44033BD3189C70D1194A
:10074000D25D002A00D05A705B460B7074734A4623
:100750005346287D00F0F2FA061EDAD02100286800
:1007600000F056FDEB686A681B19013B1B78BFF36C
:100770005F8F0021116088F310880020002ED2D1F5
:1007800018022043CFE7C046BC020020FFFFFF0F46
:100790003D060010F8B5574645464E46DE46E0B5E4
:1007A00099460CAB19780DAB1B78050090469A461C
:1007B0000768002912D1BE7B002E45D074003B682B
:1007C000A419033C1B195A783100BA73002A00D1CE
:1007D000FA7300229A705A701A7003E00E004C00EF
:1007E0006418033C2C4B00229C46AB6861449C4639
:1007F0004346090161440B604B464B600A9B8B608A
:100800000B9BCB603B681B199A705A701A707B7BEC
:100810009B46002B2CD032005946B8687B6898471D
:100820003A68002817D05B4658465B005B441419B1
:10083000033BA070D118D35C002B00D063705B46E3
:100840000E707B73B34514D030003CBC9046994683
:10085000A246AB46F8BD5B465B005B44033BD31846
:100860009E701119125D002A00D05A705B460B7001
:100870007E7342464B46287D00F060FA041E06D087
:100880005346002B03D13100286800F0C1FC0E9BB9
:10089000002BD9D01C70D7E7FFFFFF0FF0B5DE4665
:1008A0004E46574645460023E0B58DB00A936B4B44
:1008B0008200D3580B90994600239B464B460793E2
:1008C00000F0DCF9079C06000F006268EFF310856A
:1008D00072B61368002BFCD022000794BFF35F8F21
:1008E0002468637B9946002B67D092685C4B9046E6
:1008F0004B441B01984443461A685B68100019007A
:10090000801BB94100295FDD0B9800F017FA002326
:100910000026984600279A46079C6368BFF35F8FBE
:100920005A461A6085F310885346002B08D10028D8
:10093000C6D10DB03CBC90469946A246AB46F0BD30
:100940000A9B414618024B461843D047089009912C
:100950006268EFF3108572B61368002BFCD0079421
:10096000BFF35F8F0899099A002A48DB114303D02F
:10097000079B1B69002B5DD1079B1B68DA7B002A54
:1009800007D051008A1819688C4649466244033AD8
:1009900051704A46DA734B46079A013BD168CA5CEC
:1009A0000132CA545B46079A13615368BFF35F8FE5
:1009B0005A461A6085F3108882E70023002698467D
:1009C00000279A460020A7E7002901D100289BD1E3
:1009D0000021200000F07EFB43461E685F689B6894
:1009E000079A9A464346DB689846D3684B44013BD6
:1009F0001B780A931B020343136100208CE72369D1
:100A0000002BB9D033003C005B1A94411A0023003C
:100A1000A74219D89F421BD0594604910121039146
:100A20004946029141460191514607980091FFF7CE
:100A3000B1FEB7E700F022F9089A099B06000F0003
:100A400092197B419942E5D901225242D317E3E73B
:100A50009642E1D901225242D317DDE71806002061
:100A6000FFFFFF0F10B5124C6368002B04D00A2162
:100A7000104800F0F5F910BD23000F4A102120683E
:100A800000F046FA032000F0EDF8032000F0C8F96A
:100A900003200A4900F00CF9FFF7AAFD084B9C4619
:100AA000032360442375074B80006060DC60DEE751
:100AB000BC02002034060020090600109D0800102A
:100AC0004000003418060020F0B504000D00062692
:100AD0007642F717C64636196F4100B58F4213D8D4
:100AE00010D000F0CBF832003B00121A8B41002BE3
:100AF00014DC002B37D02900200000F0C9F804BC1A
:100B00009046F0BD8642ECD90026002700F0B6F8EA
:100B100032003B00121A8B41002BEADD3000390015
:100B2000FFF7A4FD0028E6DB00239846BC460F4AE9
:100B30000F4F7B6A9C4504D8B96A8E42DBD99C452D
:100B4000D9D11168EFF3108072B60B68002BFCD07E
:100B5000BFF35F8F1368BFF35F8F4146196080F367
:100B6000108820BFE5E7002AC5D0D7E7340600206B
:100B70000040054070B5060000F080F8FA2204003D
:100B80000D00002330000021920001F069F80019E7
:100B900069418D4205D802D0FFF796FF70BD8442AF
:100BA000FAD901204042C117F6E7C046F0B5D64653
:100BB0004F464646C0B5EFF305833F221340180069
:100BC0001038EFF3108C72B6204D2A68002AFCD042
:100BD000BFF35F8F0122110081401D4C8846616385
:100BE0001C4917000E788A463100C1400F400A4266
:100BF00015D019498200646A51588C4219D3174B99
:100C0000D25843469E4353461E70BFF35F8F002366
:100C10002B608CF31088002A06D0904704E0BFF3C5
:100C20005F8F2F608CF310881CBC90469946A246BB
:100C3000F0BD0B4A9B00904643441A681A60BFF30C
:100C40005F8F00232B608CF31088EDE7280100D024
:100C5000004005404C060020380600209404002087
:100C6000D03F054010B50100024A0348FFF738FCA9
:100C700010BDC046D423001049060020034B596A1A
:100C80000A00986A596A8A42FAD1704700400540C2
:100C9000064A536A9942FCD807D1044B02E05A6ACB
:100CA000914202D19A6A8242F9D3704700400540CE
:100CB00070B504000D00EFF3108672B61A4A13687F
:100CC000002BFCD0BFF35F8F002D1BD0200000F065
:100CD000EBFC164981420AD0200000F0EDFC012116
:100CE000200000F0CFFC0123A340114A1360114BF8
:100CF000A400E550BFF35F8F00220B4B1A6086F310
:100D0000108870BD0B4BA200D5500122A2400A49A9
:100D100020000B7893430B70044900F0F7FC00218E
:100D2000200000F0AFFCE5E7280100D0AD0B00107B
:100D300038600540940400204C060020F0B54F4672
:100D4000D6464646C0B50700304C616A0D00A66A1B
:100D5000616AA942FAD18B4208D805D001201CBC97
:100D600090469946A246F0BDB242F7D9EFF31089FA
:100D700072B6274801680029FCD0BFF35F8F0125B8
:100D80002449BD408C460978204C0E002E438846ED
:100D9000F1B28A46614650460870391D1E488900E6
:100DA00065630A51B9000B50216A0020294219D00D
:100DB000616A0800A66A616A8142FAD18B4219D839
:100DC00001D1B24216D8C2451DD0104B1F201D6262
:100DD0005D6301230740BB40104A1E381360634621
:100DE00042461A70BFF35F8F0022094B1A6089F3E5
:100DF0001088B4E70020BFF35F8F0022044B1A6015
:100E000089F31088ABE70120ECE7C04600400540BD
:100E1000280100D04C0600203806002080E200E0C7
:100E200010B5EFF3108472B60A490B68002BFCD0A2
:100E3000BFF35F8F01238340074A0848136202789B
:100E40009A430270BFF35F8F00230B6084F3108816
:100E500010BDC046280100D0004005404C060020CF
:100E6000024B9C4661448900016070474000003499
:100E700010B50400FFF7BCFB01002000FFF7F0FFF6
:100E8000FF232371BFF35F8F10BDC04610B5040070
:100E9000FFF7AEFB01002000FFF7E2FFFF23A38076
:100EA000BFF35F8F10BDC04670B505000E00140083
:100EB000002924D0002A24D080686B6898472968CC
:100EC00000280ED063001B197200033B9219CB1847
:100ED000033A9E7088188A5C002A14D1047030008E
:100EE0000EE073009B196200033B1219CB18033A02
:100EF0009C7088188A5C002A00D05A700670200006
:100F000070BD0800FCE75A7004703000F8E7C04676
:100F100030B583600023CCB2437301330473426065
:100F20008373C4730D000068012C06D9421C013381
:100F3000DBB2137003329C42F9D1FF2129404B00F0
:100F40005918002340180338437030BDF8B5CE4619
:100F5000474606000C0080B5002907D04D00036805
:100F60006D18033D5A195778002F04D120000CBC8E
:100F700090469946F8BD7900C9190339884643441B
:100F80005978894600215970517073683A002100E0
:100F9000806898473368002814D042469A189470A5
:100FA00059195B5D002B00D053700F702700494624
:100FB0003000FFF7CBFF390002003000FFF774FF6D
:100FC0000400D3E7424641465D19AF709A185B5C56
:100FD000002B00D06B701470E9E7C046F0B557469F
:100FE0004546DE464E46E0B50D006B0001685B19D4
:100FF000DF1E0400C85D83B00192CA1900284CD0DE
:1010000043001B18033BCB185E78B446002E16D164
:10101000019E002E3ED0E67B002E04D073009B196B
:10102000CB18033B5D70E57300282FD1002353706C
:1010300003B03CBC90469946A246AB46F0BD720058
:101040006244033A89184A78904600224A709146D1
:101050005A70010032002000FFF726FF4346824607
:10106000002B07D05B0021684344033BCB185A7820
:10107000002A16D1424651462000FFF715FF21688D
:10108000019BCA19002BC6D10028CFD043001B18E2
:10109000033BCB1800219970C8E7019B002BBAD104
:1010A000C4E750008018033809184878834648463A
:1010B0004870587041462000FFF7F6FE59468046BA
:1010C0002000FFF743FF414602002000FFF7ECFE3F
:1010D0008046CFE7F0B54E464546DE465746E0B57A
:1010E000467B040075000068AD19033D83B0019193
:1010F000415D421900294ED04B005B18033BC318D9
:101100005F78BC46002F18D1019D002D40D0E57BB3
:10111000002D04D06B005B19C318033B5E70E673AF
:10112000002931D1002330005370617303B03CBCFF
:1011300090469946A246AB46F0BD7A006244033A17
:101140008018427893460022427091465A702000DF
:101150003A00FFF7A9FE5B468046002B07D05B00F4
:1011600021685B44033BCB185A78002A17D15A46B2
:1011700041462000FFF798FE019B010020684219BC
:10118000002BC4D10029CDD04B005B18033BC31802
:1011900000209870C6E7019B002BB8D1C2E7500031
:1011A00080180338091848788246484648705870B5
:1011B00059462000FFF778FE53468346002B07D0A0
:1011C0005B0021685344033BCB185A78002A06D1B0
:1011D000594652462000FFF767FE8346C7E7500096
:1011E00080180338091848464F784870587051469F
:1011F0002000FFF759FE390081462000FFF7A6FEC8
:10120000494602002000FFF74FFE8246E0E7C04655
:1012100070B5040000292CD0437B8B422ED005688A
:1012200048004018033828188278002A21D053003B
:101230009B18033BEA5CEE188A4202D11BE0002AAD
:1012400008D053009B18033BEB185A788A42F6D11A
:1012500042785A7000230122837043702000FFF708
:10126000BDFE617B02002000FFF71EFE60730120BF
:1012700000E0002070BD43783370EBE701221900D5
:10128000FFF7ACFE60730120F4E7C0462C4B2D4AFB
:1012900070B51A602C4A2D4B2D491A6010008B68CE
:1012A0009843FBD12B4C2C4B9C4209D2013B1D1B7C
:1012B000AD080135AD002D1908CC9847AC42FBD1E3
:1012C00000F07CF8254A214B1A60214A9368DB0123
:1012D0008033FBD14022224B224C234D9A675A6720
:1012E0001A67DA66AC4208D223682000002B21D0AE
:1012F0000834FFF7CBFDAC42F6D31C4C1C4DA16863
:10130000C022280000F06EFDA560FFF763F900F031
:1013100035FBFFF7A7FB174C174B9C4209D2013B4B
:101320001D1BAD080135AD002D1908CC9847A5420D
:10133000FBD170BD0834FFF79BFDAC42D4D3DCE792
:1013400000E00040BFCDFBFEFE7F3C0000F000400F
:1013500000C000405803002068030020FFFFFF0189
:1013600000F00140500300205803002000ED00E091
:1013700000000020680300207003002000BEFDE78D
:101380000FB400B5084883B000F056FE049B002B54
:1013900007D005A91800019100F078FB034800F080
:1013A0004BFE00BEFDE7C046F823001008240010E5
:1013B00010B50148FFF7E4FF0C24001030B50C20F5
:1013C00083B000F03FFBFFF7FDF800280ED0944BF0
:1013D000944A1A605A609A60DA601A615A619A6196
:1013E000DA611A62904A5A6203B030BD8F4CA0672E
:1013F00000F030FB01228E4B1A60636C012BFCD194
:1014000003228C4B1A60894A936B012BFCD1022476
:101410000121894A89480533009400F0C1FA052367
:10142000874A01218748009400F0BAFA864B5A682F
:10143000FF2A02D8802252005A608022784C7D4BCD
:1014400021691201804D1A60002905D0606900F001
:101450006BFB01300138FDD1E0217B4B02201A6883
:101460001140802252012A4311601968484003212B
:101470000140116004219A681142FCD08022802131
:1014800092012A4309011160802252005A606F4B79
:1014900023616F4B5968FF2900D85A6003226C48BA
:1014A000634B01211A60020093681942FCD0E025C9
:1014B00013681D4080235B0103431D6012684A408E
:1014C0000321114019600221614A93681942FCD03E
:1014D000802380219B0103430901196080215D4B1A
:1014E0004900516063615C4B5A68FF2A00D859601B
:1014F00080225A4BE1691201574D1A60002905D02C
:10150000606900F011FB01300138FDD1E022524941
:101510000B681A4080235B012B431A6080238022D2
:101520009B012B4312011A6080223E4B52004A60FD
:10153000E3614B4B5968FF2900D85A608022494B20
:10154000216A1201464D1A60002905D0606900F039
:10155000EBFA01300138FDD1E02241490B681A4015
:1015600080235B012B431A60802380229B012B4345
:1015700012011A60802380225B004B60294BD2024B
:101580002362394B5968914200D25A608022374B0E
:10159000616A1201344D1A60002905D0606900F0BB
:1015A000C3FA01300138FDD1E0222F490B681A40FF
:1015B00080235B012B431A60802380229B012B43F5
:1015C00012011A608023DB024B60174B6362284BC9
:1015D0005A68FF2A02D8802252005A608022254B86
:1015E000A1691201224D1A60002905D0606900F03E
:1015F0009BFA01300138FDD1E0221D490B681A40E9
:1016000080235B012B431A60802380229B012B43A4
:1016100012011A6080235B004B600E4BA361E3E66E
:10162000A4050020006CDC021BB700000080004015
:101630003CB0004030B00040002F685900800240AC
:1016400000389C1C00C0024030800040001BB700E6
:101650003C800040405973075480004054B0004023
:101660006080004060B000406C8000406CB0004082
:101670004880004048B00040014B8000C05870478F
:10168000A405002001238340002904D0034A1360ED
:10169000034A13607047034A1360FBE780E200E0EF
:1016A00000E100E080E100E0024B10309B68800028
:1016B000C058704700ED00E070B50D00EFF31086E4
:1016C00072B60F4A1368002BFCD0BFF35F8F0D4B2F
:1016D00010309B6884001B590B4A934203D09D42F3
:1016E00001D0FFF765FE074B9B681D51BFF35F8F6D
:1016F000BFF35F8F0022024B1A6086F3108870BD23
:10170000240100D000ED00E0CD010010F0B5DE4670
:1017100057464E464546E0B50C0083B0EFF3108ABD
:1017200072B65B4A1368002BFCD0BFF35F8F1022A8
:10173000914681444A46574B96009B689D59564BAB
:1017400098469D4205D0A54216D0544FEB1B2F2B37
:1017500014D9504B9B689D51BFF35F8FBFF35F8FD0
:1017600000224B4B1A608AF3108803B03CBC9046B1
:101770009946A246AB46F0BD1D00EAE7012383402F
:101780009B465A46464B1B681A4000925A46454BA8
:101790001A60BFF35F8FFEF766FD0190002803D04B
:1017A000814501D0FFF704FE01232A009A4313006C
:1017B0003D49DB1B5B415943090D93689C4208D1AD
:1017C0005BE043001B189B00FB189868A04211D0F7
:1017D0001A00062010560028F3DA009B002B05D0D3
:1017E0005A46324B1A602E4B1A60B2E75A462D4BBE
:1017F0001A60AEE706201856002822DB42001118B6
:1018000089007C188846A1689960E179D971062120
:1018100061569971A1797F291FD8A488F91A6405A6
:10182000241544440919E0240905490D24022143E3
:10183000998012181E4B9200BF181A781870BA714E
:10184000CBE7019800280BD1FF30907119489080A8
:10185000174A107811709871BFE7BD210902E7E7B8
:10186000154A1649D21A083A5002400D0143998090
:10187000134952080A43DA80AFE7062010561300D6
:101880000028BBDA019A002AEAD14546E0E7C046C3
:10189000240100D000ED00E0CD010010E4020020A2
:1018A00000E100E080E100E0AAAA000080E200E0A0
:1018B0004B06002000BDFFFF1E03002000F0FFFFCD
:1018C00000F8FFFFF8B5012504000543FEF7CBFC47
:1018D0000300EFF3108672B621490A68002AFCD093
:1018E000BFF35F8F1F4A20001F49801A40414143C8
:1018F000090D1E489B00876849B2FF58AF421CD0B3
:101900000623D3568B421CD01223D3568B4222D0AF
:101910001E23D3568B4220D02A23D35603208B423A
:1019200010D0134B1A781970A271BFF35F8F002289
:101930000B4B1A6086F31088F8BD82680D48D050B2
:10194000EFE7002043001B189B00D218FF23937180
:10195000094B9380E5E70120F4E70220F2E7C04657
:10196000240100D0E4020020AAAA000000ED00E05B
:101970004B060020CD01001000BDFFFF054B064ABD
:101980001360064A136053609360D3601361536120
:10199000936170478080808000E400E004E400E010
:1019A000F8B504000C2017001D000E0000F0BCF874
:1019B0004101091A8B01591AC90009188901380017
:1019C00000F0B2F8069A2B04120313432268002A8F
:1019D00021DB184AA21851424A41802149018C4614
:1019E00052420A40144962440A6014490A60144988
:1019F00017008D68AF43FBD1C021221D890111431F
:101A000021222660A0600A602268002AFCDAE360D6
:101A100008230B60F8BD3F2221680A40B242D8D1AA
:101A2000A2681205120D8242D3D1E268002BD0D1F8
:101A3000F0E7C0460040FDBF00E0004000F000407D
:101A400000C000408023024A9B000343D3627047DA
:101A500000800540AA23064A1B0113602F23054975
:101A6000D360054B19605368002BFCDA7047C04601
:101A70000040024000B0FA000060024010B50028AB
:101A800000D110BD00F086FAFBE7C04610B5094A48
:101A90000300146884B0002C08D00122009106488D
:101AA000524203A9A047012004B010BD00F0C4FABF
:101AB0000020F9E7140600207D1A001001480421D7
:101AC000014B184730030020ED1A0010142310B505
:101AD0000100188804331B88984710BD162310B5E1
:101AE0000100188802331B88984710BDF0B5C64620
:101AF00000B5002916D014230400012598461827A4
:101B0000890046184346216818883B88984701C4D5
:101B1000431E984140420540A642F3D1280004BC30
:101B20009046F0BD0125F9E7114A936F9B0813D247
:101B300010665166002905D0FFE7FFE7FFE7516F08
:101B4000106F704704B5002801D00020C04300F09A
:101B50001BFC002104BDC046F0B5146E556E576FD6
:101B6000166FFFF7E5FF1466556657671667F0BDF9
:101B7000000000D0132370B51D78012D15D010DDA5
:101B80002748FFF7ABFF274C01008022200000F020
:101B900029F9022D06D02448FFF798FF234B18603F
:101BA00070BD204C224AA264F5E72E001D4C204A4D
:101BB000A3085B421E401D422FD03300226020202C
:101BC000B1006118801B0A604A608A60CA600A61BD
:101BD0004A618A61CA610A624A628A62CA620A63A7
:101BE0004A638A63CA630A644A648A64CA640A6587
:101BF0004A658A65CA650A664A668A66CA660A6767
:101C00004A674008102803D18A67CA67A264C2E7FE
:101C10001E339B00E250A264BDE70023CFE7C0461D
:101C200053440000500600204C33000030060020D2
:101C3000351C001007B5604601880A0A0230DF2A09
:101C4000FAD1C9B2820804D3028840880004104344
:101C500000E00068014A5050039007BD5006002084
:101C600051434343C9188C46110C83B24B4310B403
:101C7000040C614392B280B2504362431C041B0CBB
:101C8000001910BC59411304120CC0185141614491
:101C9000704700004840414048400E4B5B68184781
:101CA0000C4B1B6818470C4A936F9B0802D2094BD8
:101CB000DB681847F0B5146E556E576F166FFFF757
:101CC000F6FF054A1466556657671667F0BD014B67
:101CD0009B68184750070020000000D0491A0028D0
:101CE00008D1084670470000C10FC90700D540421F
:101CF000002817D0F44603B40B4B1B68984706BC6A
:101D000081409E384042803107D20B0607D04900FF
:101D1000490AC0051043084360470130F8E7490A03
:101D20008902F5E77047000030060020014B5B6A2E
:101D30001847000050070020132310B512481C78E4
:101D4000FFF7CCFE0100012C0AD003DD80220F48F2
:101D500000F048F80E48FFF7B9FE0E4B186010BDB2
:101D60000A4C5422200000F03DF80B4B6365A3653C
:101D7000E36523666366A366E36623676367A36719
:101D8000E3672362E361E5E7534600005007002064
:101D90004C330000300600209D1D001007B5604642
:101DA00001880A0A0230DF2AFAD1C9B2820804D3B4
:101DB000028840880004104300E00068014A505047
:101DC000039007BD5007002001480421014B18472C
:101DD00040030020ED1A0010014B1B68184700005B
:101DE00040030020014B5B681847000040030020BF
:101DF000030010B508001B681100984710BDC046CD
:101E0000F8B54746CE4680B5437C07000D00160066
:101E1000002B37D000240020002A1EDD4B1E9846E0
:101E20001B4B9946002C2BD043461B5D0D3B5A4261
:101E30005341DBB22A5D0A2A13D00134A642F1DCF9
:101E4000864203DD311A3B6828189847AD19013DD9
:101E50002B780D3B5A4253413B740CBC904699463B
:101E6000F8BD002BE9D1A04203DA211A3B682818FB
:101E70009847484602213B68013498472000DDE737
:101E80003B7CD7E70368110028009847E5E7C04688
:101E90007C240010F0B557464E464546DE461C00F1
:101EA000D023E0B51B061F68354B83B006000D003C
:101EB000180001A991469A4600F06EFA8046002863
:101EC00008D1019B7FB29F4204D0504600F06CFACB
:101ED000012398466B1C03D1300000F00FFA050077
:101EE000002C2AD1274F284B1C68002C18D04B46B9
:101EF000002B24D1254B994602E0E468002C0FD03A
:101F00002368002BF9D04B461B68002B01D0A3425D
:101F1000F3D120002A003100B847E468002CEFD14B
:101F20004346002B28D1681E8541E8B203B03CBC73
:101F300090469946A246AB46F0BD154FD3E7134BEA
:101F400099460A239B4602E0E468002CE8D0236807
:101F5000002BF9D04B461B68002B01D0A342F3D1D4
:101F60002A0031002000B8475A466B4620001A71FB
:101F700001A90122B847E7E7504600F0FDF9D2E792
:101F800050030020011E00100C0600201006002047
:101F9000F11D0010F0B54746CE4680B583B06B46C4
:101FA000DF1CD02338701B061C68204B060001A9DB
:101FB0001800984600F0F0F9051E22D01C4B1C6852
:101FC000002C2AD01B4B994602E0E468002C10D06C
:101FD0002368002BF9D04B461B68002B01D0A3428D
:101FE000F3D1200001223900FFF70AFFE468002C3A
:101FF000EED1002D11D1300003B00CBC90469946B3
:10200000F0BD019B64B29C420BD0404600F0CCF97D
:10201000074B01251C68002CD4D1404600F0ACF9D8
:10202000E9E7034B1C68002CCCD1E4E75003002007
:102030000C0600201006002070B5040000F05EF9C8
:1020400000230100050001222000FFF723FF084BB9
:102050001C68002C06D06368002B05D09847E46804
:10206000002CF8D1280070BDE468002CF3D1F9E70A
:102070000C06002010B5024800F004F810BDC04660
:102080002806002030B5002589B00400092200216F
:1020900001A80095FFF7A0FE0922002105A80495DC
:1020A000FFF79AFE4B236A466846137004A90D2277
:1020B00000F05AF91521082220006944FFF792FE2A
:1020C00009B030BD0B4B10B59C46604444424441BE
:1020D000094AA40082B0009208482200E31CFEF7DF
:1020E00023FA844202DC001B02B010BD01204042F2
:1020F000FAE7C0460000D0AF802400104A06002056
:10210000F0B5DE46454657464E46E0B5060083B07C
:102110000D00FEF7CFF9304B2F79F1184B425941A2
:102120002E4B052498468B009B4643465A469B58A7
:1021300020229C460123BB4001902C57013BD21B1F
:10214000002C32DB944243DCA34062461A423FD16A
:102150009946002F18D06B782A781B021A43AB7867
:102160001B041343EA7812061A4392460023514691
:102170005A008D5A6A0B00D12D191A191232920089
:10218000013395519F42F2D863464A46594613435C
:10219000424601985350FEF799F9200003B03CBC29
:1021A00090469946A246AB46F0BD002A10DB1900C6
:1021B0006046914014008946014207D1C9E71800E2
:1021C00061469040140081460842C2D0013AF6D2DE
:1021D0000348FFF7D5F8C0460000D0AF8C040020BC
:1021E000A4240010F0B54E464546DE4657468B46C1
:1021F0004900E0B50D0080465D44ED0045442800EF
:1022000009AC2678DC30741EA64189460168744208
:102210008C4615491F268A4626405644052B0ED962
:10222000A02149058A461F27D835514654010C4341
:102230000532053B04603A402E60052BF5D859461F
:102240004944C90041449B0652011A430B0008004F
:10225000DC331A606246D83006601A603CBC904697
:102260009946A246AB46F0BD80E00000F0B50125DE
:102270008D400468AC434D0004606C18E400041900
:102280002600C836002B2AD01F68DC3437605F6810
:1022900077609F68DB68B76023606B18DB001D0008
:1022A0008024D035451964012C4380252D062560F6
:1022B0002560114C0D1D8C40846001242700AF4027
:1022C0003D0008318C401F2106680A4035430560F7
:1022D00005682C430460C018D8300260F0BD802728
:1022E0007F023760F8277F027760C027DC343F0326
:1022F000B7602360D1E7C0460101010110B5830733
:1023000027D00378002B26D00300032102E01A789F
:10231000002A1CD001330B42F9D119680F4A104C26
:102320008A188A4322420FD1043319680B4A8A184B
:102330008A43224208D104331968084A8A188A431A
:102340002242F1D000E001331A78002AFBD1181A9A
:1023500010BD0300E1E70020FAE7C046FFFEFEFEE5
:1023600080808080F8B5C04601B40248844601BC34
:10237000604700BFF101002001B40248844601BC5F
:10238000604700BF5101002001B40248844601BCEF
:10239000604700BFB502002001B40248844601BC7A
:1023A000604700BF0901002001B40248844601BC17
:0823B000604700BFC1000020DE
:1023B800C02300100AFF000001F342B342B342B346
:1023C80042B300F342B342B342B342B348617264CA
:1023D8007761726520616C61726D20256420616C83
:1023E800726561647920636C61696D6564000000E1
:1023F8000A2A2A2A2050414E4943202A2A2A0A001A
:102408000A00000048617264206173736572740089
:1024180052656C6561736500626F6F74325F773205
:102428003571303830000000312E332E3000000076
:102438007069636F00000000626C696E6B5F7069A1
:102448006F0000004D61722032322032303232008B
:1024580006005250BBFF3CB638240010060052500C
:10246800E182887F2024001006005250D3F0754284
:10247800182400100D0A00004E6F2050494F207399
:1024880074617465206D616368696E65732061723B
:102498006520617661696C61626C65004E6F2070C1
:1024A800726F6772616D2073706163650000000070
:1024B800B4020010A80200109C020010582400105A
:0C24C8009002001064240010702400102A
:1024D400D02330B500251B0600245D5706E00368B1
:1024E400BFF35F8F1C6081F3108820BF0268EFF395
:1024F400108172B61368002BFCD0BFF35F8F037991
:102504007F2BECD905710368BFF35F8F00221A603B
:1025140081F3108830BDC046030010B50068EFF3A6
:10252400108472B60268002AFCD0BFF35F8F0422C5
:102534009A56002A0BDB00290FD000200A601B6882
:10254400BFF35F8F00221A6084F3108810BDD0227D
:102554001206126801201A71F1E70020EFE7C04665
:102564000268EFF3108172B61368002BFCD0BFF33E
:102574005F8FFF2303710368BFF35F8F00221A602C
:1025840081F3108840BF7047084810B50378002BCA
:102594000AD180230649074A5B051C68CC500433E2
:1025A4009342FAD10123037010BDC04648060020AF
:1025B400A40400100001001010B5024B0133984729
:1025C40010BDC046A4040020054B1A6880239B005C
:1025D4005340C02292001340024A13607047C04621
:1025E4000C8001400C900140034B1A68C0239B00EF
:1025F4009343024A136070470C8001400C900140E1
:102604001423F0B5D6464F4646469A468146188866
:102614000433C0B598460E001B8827491400984718
:10262400534607001888434624491B889847534655
:1026340005001888434622491B8898478046FFF7BF
:10264400A3FFB847A847FFF7BFFF002C1BD0C0214A
:1026540022000827022049053D008B6A1D401842CC
:102664000BD0002C09D0131B0D2B1FD84B461B7805
:10267400013C0B6601239C46E1442300002D0CD150
:102684001343002BE8D1FFF7AFFFC047FFF794FFD8
:102694001CBC90469946A246F0BD002AF1D00B6EB0
:1026A400013A3370130001362343EAE7002DD3D0F7
:1026B400002AD1D0F3E7C04649460000455800003F
:1026C400464300007047C04610000000D4020020BA
:1026D4000000000070030020CC0500200000000072
:1026E40000000000DC0500200000000000000000E5
:1026F40010000000000000000000010000000000C5
:1027040000000000000002000000000000000000C3
:102714000000030000000000000000000000FF00B3
:102724000000000000B5486801318E46004770463D
:1027340009380149884700BDC51800100000000091
:10274400503300004C330000543300005233000077
:102754004D5300004D430000533400004334000047
:102764000000000000000000C91D0010BD1A001088
:10277400751B0010391D001039030010752000105E
:04000005100001E9FD
:00000001FF
